:04000000020049327F
:01000B0032C2
:0100130032BA
:01001B0032B2
:0100230032AA
:01002B0032A2
:01003300329A
:01003B003292
:0300430002009028
:03008D0002004628
:030046000200E7CE
:20009000C021C0E0C0F0C082C083C007C006C005C004C003C002C001C000C0D075D0001297
:2000B0000663D0D0D000D001D002D003D004D005D006D007D083D082D0F0D0E0D02132AEA5
:2000D00082AF838E048F051EBEFF011FEC4D60060000000080ED227F017E0175A15575A18D
:2000F000AA53B9F843B90575A100C007C006120365D006D007439230439330439030E590F4
:2001100030E4067C017D0080047C007D00E59030E5067B017D0080047B007D00ECB507028F
:2001300080579001F4C007C006C0031200CFD003D006D007E59030E4067C017D0080047C19
:20015000007D00ECB507028030ECFF7017758201C007C006C0031201FA1201E0D003D00655
:20017000D0078015758200C007C006C0031201FA1201E0D003D006D007EBB5060302010E82
:200190009001F4C007C0061200CFD006D007E59030E5067C017D0080047C007D00ECB50601
:2001B0000302010EECFE7014758202C007C0061201FA1201E0D006D00702010E758203C0AF
:1001D00007C0061201FA1201E0D006D00702010E94
:20005C00C200900100E4F074C2A3F07401A3F0E4A3F0900104F0900105F09001067408F007
:11007C00900107E4F0900108F0900109F090010AF069
:2001E00020001690010AE06010D20090010AE0F5D553D4FC90010AE4F022AF822000FD9035
:20020000010AE0FE04F07D0074402EFEE43DFDEE2414F582ED3400F583EFF090010AE0FFF7
:20022000BF40030201E022AD82AE83AFF08D828E838FF01206C7FC60188C820DBD00010EDF
:20024000C007C006C0051201FAD005D006D00780DC2212022775820A1201FA0201E0900182
:2002600008E060FA900109E0FF04F0EF2414F582E43400F583E0FF900108E014FEF0EE70E9
:200280000353D4F38F82227E0A7F008EEE8FEF7E147F008EE48FE575D21275D41275EB0CF6
:2002A00075EA4075D30075D500900108E4F0C20022AF08BF20028036BF21028005BF2232F4
:2002C00080207F008F057E00EF2400F582E43401F583E08D828E83F00FBF070040E67582F0
:2002E0000722900002E0900107F075820022758200227582FF227420B5082D7F00C3E5DB11
:200300009407920140047E078002AEDBC3EF9E5017EF2400FDE43401FE8F82758300E0FC18
:200320008D828E83F00F80D575DC402274FC55D44402F5D4C2002230DE17E5DB601374F34B
:1203400055D44408F5D4900108E5DBF0900109E4F02294
:2006E7001201100100000008C0168BBA00010102030109024B000201008019080B0002029B
:200707000201040904000001020201040524001001052401000004240202052406000107ED
:2007270005810308000109040100020A0000040705020240000007058202400000040309D2
:20074700040A034D006F005900750018036D006F00790075002D0062006100380062006127
:20076700006B000E03420041003800420041004B0014034300440043002D004B0065007936
:05078700006500720096
:200352007E007F008EEC8FED75DC0275DD00C20202028775E22975D18112035275E1077524
:20037200D81FD2EAD2AF22C0E0C007AF8205A290000015A2850E82850F83E493A3A5DFFACB
:2003920085820E85830FD007D0E0227F00900007E0FD7E00900006E0FC7B004EF50CEB4D91
:2003B200F50D900001E0F508900000E0F509E509546060030205C3E508FE24F45003020521
:2003D200BFEEF5F0240B83F582E5F0241083F583E473E303BF5EBFB2FCBFBBD8D9D9040578
:2003F20005050504030504040505900003E0FEBE0102800ABE0202800FBE03688014750E71
:20041200E7750F067F12805E750EF9750F067F4B8054900002E0FE24FB4038EE2E9004335C
:20043200738008800E8014801A8020750E44750F078026750E48750F07801E750E52750F0E
:20045200078016750E6A750F07800E750E78750F078006750E6A750F07850E82850F83E453
:2004720093FF80027FFFBFFF030205D98F057E00C3ED950CEE950D50048D0C8E0DAD0CAE55
:200492000DC3ED9408EE9400920340067D087E008004AD0CAE0D8D078F821203790205D986
:2004B200900002E0F50B0205D9900000E50AF0AD0CAE0DC374019DE49E5006750C01750D44
:2004D20000AF0C0205D9900002E0F50AD2020205D9900000E4F0900001F0AD0CAE0DC374BA
:2004F200029DE49E5006750C02750D00AF0C0205D9E509541F701E900002E0FEBE01119014
:200512000700E493FE30E5030205D97FFF0205D97FFF0205D9AD0953051F7E00BD0228BE49
:200532000025900004E0FEBE02028005BE8213800653D4730205D974BC55D44402F5D4020E
:2005520005D97FFF0205D97FFF0205D9E509541F7019900002E0FEBE010D900700E493FEBD
:2005720020E5647FFF80607FFF805CAD0953051F7E00BD0234BE0031900002E07027900022
:2005920004E0FEBE02028005BE8216800A747F55D4440CF5D4803074BF55D44403F5D4806F
:2005B200267FFF80227FFF801E7FFF801A7FFF8016AD095305607E00BD200ABE00071202EF
:2005D200B1AF8280027FFFBFFF077508FF75DCCF228F057E00AB0CAC0DEBC39DFBEC9EFC56
:2005F2008B0C8C0D8FDD75DCC022AF08BF0502803ABF0645AE0CAF0DC3EE9408EF94009201
:200612000440067E087F008004AE0CAF0D8E821203798E057F00AB0CAC0DEBC39DFBEC9F8E
:20063200FC8B0C8C0D8EDD63DC4022E5E35480FFE50B4FF5E375DC822275DC8222AE0953CA
:2006520006607F00BE2006BF00030202F675DC402230D94FE5D9540FFFADD95305307E004C
:20067200BD0005BE00028027BD2005BE0002800BBD302EBE002B12039D8026BF0002800570
:20069200BF021E80051205FC801712032C8012BF00028005BF020A800512064F80031203D2
:1506B20037C2D910DA02800030D80912035275E30075D81F2297
:06005600E478FFF6D8FD7E
:0D0049007581211206E3E582600302004686
:1C06C70020F71430F6148883A88220F507E6A88375830022E280F7E49322E02242
:0406E30075820022FA
:00000001FF
